{
  "contractName": "Defi",
  "abi": [
    {
      "inputs": [
        {
          "internalType": "address",
          "name": "_NFTAddress",
          "type": "address"
        },
        {
          "internalType": "address",
          "name": "_rewardToken",
          "type": "address"
        }
      ],
      "stateMutability": "nonpayable",
      "type": "constructor"
    },
    {
      "inputs": [],
      "name": "admin",
      "outputs": [
        {
          "internalType": "address",
          "name": "",
          "type": "address"
        }
      ],
      "stateMutability": "view",
      "type": "function"
    },
    {
      "inputs": [],
      "name": "lockTime",
      "outputs": [
        {
          "internalType": "uint256",
          "name": "",
          "type": "uint256"
        }
      ],
      "stateMutability": "view",
      "type": "function"
    },
    {
      "inputs": [
        {
          "internalType": "uint256",
          "name": "",
          "type": "uint256"
        }
      ],
      "name": "nftRewards",
      "outputs": [
        {
          "internalType": "uint256",
          "name": "tokenId",
          "type": "uint256"
        },
        {
          "internalType": "uint256",
          "name": "NFTclaimedAt",
          "type": "uint256"
        },
        {
          "internalType": "bool",
          "name": "isNFTClaimed",
          "type": "bool"
        }
      ],
      "stateMutability": "view",
      "type": "function"
    },
    {
      "inputs": [],
      "name": "rewardInterval",
      "outputs": [
        {
          "internalType": "uint256",
          "name": "",
          "type": "uint256"
        }
      ],
      "stateMutability": "view",
      "type": "function"
    },
    {
      "inputs": [],
      "name": "rewardRate",
      "outputs": [
        {
          "internalType": "uint256",
          "name": "",
          "type": "uint256"
        }
      ],
      "stateMutability": "view",
      "type": "function"
    },
    {
      "inputs": [],
      "name": "rewardToken",
      "outputs": [
        {
          "internalType": "contract CustomIERC20",
          "name": "",
          "type": "address"
        }
      ],
      "stateMutability": "view",
      "type": "function"
    },
    {
      "inputs": [
        {
          "internalType": "uint256",
          "name": "",
          "type": "uint256"
        }
      ],
      "name": "stakes",
      "outputs": [
        {
          "internalType": "address",
          "name": "stakeholder",
          "type": "address"
        },
        {
          "internalType": "address",
          "name": "contractAddress",
          "type": "address"
        },
        {
          "internalType": "string",
          "name": "tokenName",
          "type": "string"
        },
        {
          "internalType": "uint256",
          "name": "amount",
          "type": "uint256"
        },
        {
          "internalType": "uint256",
          "name": "stakedAt",
          "type": "uint256"
        },
        {
          "internalType": "uint256",
          "name": "unStakedAt",
          "type": "uint256"
        },
        {
          "internalType": "uint256",
          "name": "claimedAt",
          "type": "uint256"
        },
        {
          "internalType": "uint256",
          "name": "rewardAmount",
          "type": "uint256"
        },
        {
          "internalType": "bool",
          "name": "isUnstaked",
          "type": "bool"
        },
        {
          "internalType": "bool",
          "name": "isRewardClaimed",
          "type": "bool"
        },
        {
          "internalType": "bool",
          "name": "isStaked",
          "type": "bool"
        }
      ],
      "stateMutability": "view",
      "type": "function"
    },
    {
      "inputs": [],
      "name": "totalStakes",
      "outputs": [
        {
          "internalType": "uint256",
          "name": "",
          "type": "uint256"
        }
      ],
      "stateMutability": "view",
      "type": "function"
    },
    {
      "inputs": [
        {
          "internalType": "address",
          "name": "",
          "type": "address"
        },
        {
          "internalType": "uint256",
          "name": "",
          "type": "uint256"
        }
      ],
      "name": "userStakelist",
      "outputs": [
        {
          "internalType": "uint256",
          "name": "",
          "type": "uint256"
        }
      ],
      "stateMutability": "view",
      "type": "function"
    },
    {
      "inputs": [
        {
          "internalType": "uint256",
          "name": "_value",
          "type": "uint256"
        }
      ],
      "name": "setMinimumStakevalue",
      "outputs": [],
      "stateMutability": "nonpayable",
      "type": "function"
    },
    {
      "inputs": [
        {
          "internalType": "uint256",
          "name": "_value",
          "type": "uint256"
        }
      ],
      "name": "setMaximumStakevalue",
      "outputs": [],
      "stateMutability": "nonpayable",
      "type": "function"
    },
    {
      "inputs": [
        {
          "internalType": "uint256",
          "name": "_locktime",
          "type": "uint256"
        }
      ],
      "name": "setLocktime",
      "outputs": [],
      "stateMutability": "nonpayable",
      "type": "function"
    },
    {
      "inputs": [
        {
          "internalType": "uint256",
          "name": "_rewardInterval",
          "type": "uint256"
        }
      ],
      "name": "setRewardInterval",
      "outputs": [],
      "stateMutability": "nonpayable",
      "type": "function"
    },
    {
      "inputs": [
        {
          "internalType": "uint256",
          "name": "_value",
          "type": "uint256"
        }
      ],
      "name": "setRewardRate",
      "outputs": [],
      "stateMutability": "nonpayable",
      "type": "function"
    },
    {
      "inputs": [
        {
          "internalType": "uint256",
          "name": "_amount",
          "type": "uint256"
        },
        {
          "internalType": "address",
          "name": "_tokenAddress",
          "type": "address"
        }
      ],
      "name": "stakeTokens",
      "outputs": [],
      "stateMutability": "nonpayable",
      "type": "function"
    },
    {
      "inputs": [
        {
          "internalType": "uint256",
          "name": "_stakeID",
          "type": "uint256"
        }
      ],
      "name": "unstakeTokens",
      "outputs": [],
      "stateMutability": "nonpayable",
      "type": "function"
    },
    {
      "inputs": [
        {
          "internalType": "uint256",
          "name": "_stakeID",
          "type": "uint256"
        }
      ],
      "name": "claimRewardTokens",
      "outputs": [],
      "stateMutability": "nonpayable",
      "type": "function"
    },
    {
      "inputs": [
        {
          "internalType": "uint256",
          "name": "_stakeID",
          "type": "uint256"
        }
      ],
      "name": "claimNFTReward",
      "outputs": [],
      "stateMutability": "nonpayable",
      "type": "function"
    }
  ],
  "bytecode": "0x60806040523480156200001157600080fd5b5060405162002fd038038062002fd083398181016040528101906200003791906200016b565b33600260006101000a81548173ffffffffffffffffffffffffffffffffffffffff021916908373ffffffffffffffffffffffffffffffffffffffff160217905550806000806101000a81548173ffffffffffffffffffffffffffffffffffffffff021916908373ffffffffffffffffffffffffffffffffffffffff16021790555081600160006101000a81548173ffffffffffffffffffffffffffffffffffffffff021916908373ffffffffffffffffffffffffffffffffffffffff1602179055505050620001b2565b600080fd5b600073ffffffffffffffffffffffffffffffffffffffff82169050919050565b6000620001338262000106565b9050919050565b620001458162000126565b81146200015157600080fd5b50565b60008151905062000165816200013a565b92915050565b6000806040838503121562000185576200018462000101565b5b6000620001958582860162000154565b9250506020620001a88582860162000154565b9150509250929050565b612e0e80620001c26000396000f3fe608060405234801561001057600080fd5b50600436106101165760003560e01c8063ba872d67116100a2578063d5a44f8611610071578063d5a44f86146102b9578063e3e84213146102f3578063f29c9c921461030f578063f7c618c11461032b578063f851a4401461034957610116565b8063ba872d671461022f578063bec4de3f14610261578063bf9befb11461027f578063c5307fed1461029d57610116565b8063301099a3116100e9578063301099a31461018d5780635168ec67146101a9578063608e4dd0146101d95780637b0a47ee146101f55780639e447fc61461021357610116565b80630ad67af81461011b5780630bea440d146101375780630d668087146101535780631186e18814610171575b600080fd5b6101356004803603810190610130919061202d565b610367565b005b610151600480360381019061014c91906120b8565b610828565b005b61015b610dbf565b6040516101689190612107565b60405180910390f35b61018b6004803603810190610186919061202d565b610dc5565b005b6101a760048036038101906101a2919061202d565b610ea2565b005b6101c360048036038101906101be9190612122565b610f7f565b6040516101d09190612107565b60405180910390f35b6101f360048036038101906101ee919061202d565b610fb0565b005b6101fd611504565b60405161020a9190612107565b60405180910390f35b61022d6004803603810190610228919061202d565b61150a565b005b6102496004803603810190610244919061202d565b6115e7565b6040516102589392919061217d565b60405180910390f35b61026961161e565b6040516102769190612107565b60405180910390f35b610287611624565b6040516102949190612107565b60405180910390f35b6102b760048036038101906102b2919061202d565b61162a565b005b6102d360048036038101906102ce919061202d565b611ab8565b6040516102ea9b9a9998979695949392919061225c565b60405180910390f35b61030d6004803603810190610308919061202d565b611c01565b005b6103296004803603810190610324919061202d565b611cde565b005b610333611dbb565b604051610340919061236d565b60405180910390f35b610351611ddf565b60405161035e9190612388565b60405180910390f35b6000600a6000838152602001908152602001600020604051806101600160405290816000820160009054906101000a900473ffffffffffffffffffffffffffffffffffffffff1673ffffffffffffffffffffffffffffffffffffffff1673ffffffffffffffffffffffffffffffffffffffff1681526020016001820160009054906101000a900473ffffffffffffffffffffffffffffffffffffffff1673ffffffffffffffffffffffffffffffffffffffff1673ffffffffffffffffffffffffffffffffffffffff168152602001600282018054610444906123d2565b80601f0160208091040260200160405190810160405280929190818152602001828054610470906123d2565b80156104bd5780601f10610492576101008083540402835291602001916104bd565b820191906000526020600020905b8154815290600101906020018083116104a057829003601f168201915b5050505050815260200160038201548152602001600482015481526020016005820154815260200160068201548152602001600782015481526020016008820160009054906101000a900460ff161515151581526020016008820160019054906101000a900460ff161515151581526020016008820160029054906101000a900460ff16151515158152505090506000600b600084815260200190815260200160002060405180606001604052908160008201548152602001600182015481526020016002820160009054906101000a900460ff161515151581525050905060006105b76008548460800151611e0590919063ffffffff16565b90506000600160009054906101000a900473ffffffffffffffffffffffffffffffffffffffff1690506000151584610100015115151461062c576040517f08c379a000000000000000000000000000000000000000000000000000000000815260040161062390612450565b60405180910390fd5b60001515600b600087815260200190815260200160002060020160009054906101000a900460ff16151514610696576040517f08c379a000000000000000000000000000000000000000000000000000000000815260040161068d906124bc565b60405180910390fd5b814210156106d9576040517f08c379a00000000000000000000000000000000000000000000000000000000081526004016106d09061254e565b60405180910390fd5b8073ffffffffffffffffffffffffffffffffffffffff166340d097c3336040518263ffffffff1660e01b81526004016107129190612388565b600060405180830381600087803b15801561072c57600080fd5b505af1158015610740573d6000803e3d6000fd5b505050508073ffffffffffffffffffffffffffffffffffffffff16629a9b7b6040518163ffffffff1660e01b8152600401602060405180830381865afa15801561078e573d6000803e3d6000fd5b505050506040513d601f19601f820116820180604052508101906107b29190612583565b83600001818152505060018360400190151590811515815250504283602001818152505082600b6000878152602001908152602001600020600082015181600001556020820151816001015560408201518160020160006101000a81548160ff0219169083151502179055509050505050505050565b60016004541161083757600080fd5b60016007541161084657600080fd5b60016008541161085557600080fd5b60016009541161086457600080fd5b6004548210156108a9576040517f08c379a00000000000000000000000000000000000000000000000000000000081526004016108a090612622565b60405180910390fd5b6005548211156108ee576040517f08c379a00000000000000000000000000000000000000000000000000000000081526004016108e5906126b4565b60405180910390fd5b818173ffffffffffffffffffffffffffffffffffffffff166370a08231336040518263ffffffff1660e01b81526004016109289190612388565b602060405180830381865afa158015610945573d6000803e3d6000fd5b505050506040513d601f19601f820116820180604052508101906109699190612583565b10156109aa576040517f08c379a00000000000000000000000000000000000000000000000000000000081526004016109a190612720565b60405180910390fd5b818173ffffffffffffffffffffffffffffffffffffffff1663dd62ed3e33306040518363ffffffff1660e01b81526004016109e6929190612740565b602060405180830381865afa158015610a03573d6000803e3d6000fd5b505050506040513d601f19601f82011682018060405250810190610a279190612583565b1015610a68576040517f08c379a0000000000000000000000000000000000000000000000000000000008152600401610a5f906127b5565b60405180910390fd5b60006040518061016001604052803373ffffffffffffffffffffffffffffffffffffffff1681526020018373ffffffffffffffffffffffffffffffffffffffff1681526020018373ffffffffffffffffffffffffffffffffffffffff166306fdde036040518163ffffffff1660e01b8152600401600060405180830381865afa158015610af9573d6000803e3d6000fd5b505050506040513d6000823e3d601f19601f82011682018060405250810190610b2291906128fb565b81526020018481526020014281526020016000815260200160008152602001600081526020016000151581526020016000151581526020016001151581525090506001600654610b729190612973565b60068190555080600a6000600654815260200190815260200160002060008201518160000160006101000a81548173ffffffffffffffffffffffffffffffffffffffff021916908373ffffffffffffffffffffffffffffffffffffffff16021790555060208201518160010160006101000a81548173ffffffffffffffffffffffffffffffffffffffff021916908373ffffffffffffffffffffffffffffffffffffffff1602179055506040820151816002019080519060200190610c38929190611f40565b50606082015181600301556080820151816004015560a0820151816005015560c0820151816006015560e082015181600701556101008201518160080160006101000a81548160ff0219169083151502179055506101208201518160080160016101000a81548160ff0219169083151502179055506101408201518160080160026101000a81548160ff021916908315150217905550905050600c60003373ffffffffffffffffffffffffffffffffffffffff1673ffffffffffffffffffffffffffffffffffffffff16815260200190815260200160002060065490806001815401808255809150506001900390600052602060002001600090919091909150558173ffffffffffffffffffffffffffffffffffffffff166323b872dd3330866040518463ffffffff1660e01b8152600401610d76939291906129c9565b6020604051808303816000875af1158015610d95573d6000803e3d6000fd5b505050506040513d601f19601f82011682018060405250810190610db99190612a2c565b50505050565b60075481565b600260009054906101000a900473ffffffffffffffffffffffffffffffffffffffff1673ffffffffffffffffffffffffffffffffffffffff163373ffffffffffffffffffffffffffffffffffffffff1614610e55576040517f08c379a0000000000000000000000000000000000000000000000000000000008152600401610e4c90612acb565b60405180910390fd5b60008111610e98576040517f08c379a0000000000000000000000000000000000000000000000000000000008152600401610e8f90612b37565b60405180910390fd5b8060048190555050565b600260009054906101000a900473ffffffffffffffffffffffffffffffffffffffff1673ffffffffffffffffffffffffffffffffffffffff163373ffffffffffffffffffffffffffffffffffffffff1614610f32576040517f08c379a0000000000000000000000000000000000000000000000000000000008152600401610f2990612acb565b60405180910390fd5b60008111610f75576040517f08c379a0000000000000000000000000000000000000000000000000000000008152600401610f6c90612b37565b60405180910390fd5b8060078190555050565b600c6020528160005260406000208181548110610f9b57600080fd5b90600052602060002001600091509150505481565b6000600a6000838152602001908152602001600020604051806101600160405290816000820160009054906101000a900473ffffffffffffffffffffffffffffffffffffffff1673ffffffffffffffffffffffffffffffffffffffff1673ffffffffffffffffffffffffffffffffffffffff1681526020016001820160009054906101000a900473ffffffffffffffffffffffffffffffffffffffff1673ffffffffffffffffffffffffffffffffffffffff1673ffffffffffffffffffffffffffffffffffffffff16815260200160028201805461108d906123d2565b80601f01602080910402602001604051908101604052809291908181526020018280546110b9906123d2565b80156111065780601f106110db57610100808354040283529160200191611106565b820191906000526020600020905b8154815290600101906020018083116110e957829003601f168201915b5050505050815260200160038201548152602001600482015481526020016005820154815260200160068201548152602001600782015481526020016008820160009054906101000a900460ff161515151581526020016008820160019054906101000a900460ff161515151581526020016008820160029054906101000a900460ff1615151515815250509050806101400151156111da576040517f08c379a00000000000000000000000000000000000000000000000000000000081526004016111d190612450565b60405180910390fd5b3373ffffffffffffffffffffffffffffffffffffffff16816000015173ffffffffffffffffffffffffffffffffffffffff161461124c576040517f08c379a000000000000000000000000000000000000000000000000000000000815260040161124390612ba3565b60405180910390fd5b60001515816101000151151514611298576040517f08c379a000000000000000000000000000000000000000000000000000000000815260040161128f90612c0f565b60405180910390fd5b6112b16007548260800151611e0590919063ffffffff16565b6003819055506003544210156112fc576040517f08c379a00000000000000000000000000000000000000000000000000000000081526004016112f390612ca1565b60405180910390fd5b428160a001818152505060018161010001901515908115158152505080600a600084815260200190815260200160002060008201518160000160006101000a81548173ffffffffffffffffffffffffffffffffffffffff021916908373ffffffffffffffffffffffffffffffffffffffff16021790555060208201518160010160006101000a81548173ffffffffffffffffffffffffffffffffffffffff021916908373ffffffffffffffffffffffffffffffffffffffff16021790555060408201518160020190805190602001906113d6929190611f40565b50606082015181600301556080820151816004015560a0820151816005015560c0820151816006015560e082015181600701556101008201518160080160006101000a81548160ff0219169083151502179055506101208201518160080160016101000a81548160ff0219169083151502179055506101408201518160080160026101000a81548160ff02191690831515021790555090505061147882611e1b565b50806020015173ffffffffffffffffffffffffffffffffffffffff1663a9059cbb3383606001516040518363ffffffff1660e01b81526004016114bc929190612cc1565b6020604051808303816000875af11580156114db573d6000803e3d6000fd5b505050506040513d601f19601f820116820180604052508101906114ff9190612a2c565b505050565b60095481565b600260009054906101000a900473ffffffffffffffffffffffffffffffffffffffff1673ffffffffffffffffffffffffffffffffffffffff163373ffffffffffffffffffffffffffffffffffffffff161461159a576040517f08c379a000000000000000000000000000000000000000000000000000000000815260040161159190612acb565b60405180910390fd5b600081116115dd576040517f08c379a00000000000000000000000000000000000000000000000000000000081526004016115d490612b37565b60405180910390fd5b8060098190555050565b600b6020528060005260406000206000915090508060000154908060010154908060020160009054906101000a900460ff16905083565b60085481565b60065481565b600260009054906101000a900473ffffffffffffffffffffffffffffffffffffffff1673ffffffffffffffffffffffffffffffffffffffff163373ffffffffffffffffffffffffffffffffffffffff16146116ba576040517f08c379a00000000000000000000000000000000000000000000000000000000081526004016116b190612acb565b60405180910390fd5b6000600a6000838152602001908152602001600020604051806101600160405290816000820160009054906101000a900473ffffffffffffffffffffffffffffffffffffffff1673ffffffffffffffffffffffffffffffffffffffff1673ffffffffffffffffffffffffffffffffffffffff1681526020016001820160009054906101000a900473ffffffffffffffffffffffffffffffffffffffff1673ffffffffffffffffffffffffffffffffffffffff1673ffffffffffffffffffffffffffffffffffffffff168152602001600282018054611797906123d2565b80601f01602080910402602001604051908101604052809291908181526020018280546117c3906123d2565b80156118105780601f106117e557610100808354040283529160200191611810565b820191906000526020600020905b8154815290600101906020018083116117f357829003601f168201915b5050505050815260200160038201548152602001600482015481526020016005820154815260200160068201548152602001600782015481526020016008820160009054906101000a900460ff161515151581526020016008820160019054906101000a900460ff161515151581526020016008820160029054906101000a900460ff161515151581525050905060008160e00151111561195d57600181610120019015159081151581525050428160c001818152505060008054906101000a900473ffffffffffffffffffffffffffffffffffffffff1673ffffffffffffffffffffffffffffffffffffffff166340c10f1982600001518360e001516040518363ffffffff1660e01b815260040161192a929190612cc1565b600060405180830381600087803b15801561194457600080fd5b505af1158015611958573d6000803e3d6000fd5b505050505b80600a600084815260200190815260200160002060008201518160000160006101000a81548173ffffffffffffffffffffffffffffffffffffffff021916908373ffffffffffffffffffffffffffffffffffffffff16021790555060208201518160010160006101000a81548173ffffffffffffffffffffffffffffffffffffffff021916908373ffffffffffffffffffffffffffffffffffffffff1602179055506040820151816002019080519060200190611a1b929190611f40565b50606082015181600301556080820151816004015560a0820151816005015560c0820151816006015560e082015181600701556101008201518160080160006101000a81548160ff0219169083151502179055506101208201518160080160016101000a81548160ff0219169083151502179055506101408201518160080160026101000a81548160ff0219169083151502179055509050505050565b600a6020528060005260406000206000915090508060000160009054906101000a900473ffffffffffffffffffffffffffffffffffffffff16908060010160009054906101000a900473ffffffffffffffffffffffffffffffffffffffff1690806002018054611b27906123d2565b80601f0160208091040260200160405190810160405280929190818152602001828054611b53906123d2565b8015611ba05780601f10611b7557610100808354040283529160200191611ba0565b820191906000526020600020905b815481529060010190602001808311611b8357829003601f168201915b5050505050908060030154908060040154908060050154908060060154908060070154908060080160009054906101000a900460ff16908060080160019054906101000a900460ff16908060080160029054906101000a900460ff1690508b565b600260009054906101000a900473ffffffffffffffffffffffffffffffffffffffff1673ffffffffffffffffffffffffffffffffffffffff163373ffffffffffffffffffffffffffffffffffffffff1614611c91576040517f08c379a0000000000000000000000000000000000000000000000000000000008152600401611c8890612acb565b60405180910390fd5b60008111611cd4576040517f08c379a0000000000000000000000000000000000000000000000000000000008152600401611ccb90612b37565b60405180910390fd5b8060088190555050565b600260009054906101000a900473ffffffffffffffffffffffffffffffffffffffff1673ffffffffffffffffffffffffffffffffffffffff163373ffffffffffffffffffffffffffffffffffffffff1614611d6e576040517f08c379a0000000000000000000000000000000000000000000000000000000008152600401611d6590612acb565b60405180910390fd5b60008111611db1576040517f08c379a0000000000000000000000000000000000000000000000000000000008152600401611da890612b37565b60405180910390fd5b8060058190555050565b60008054906101000a900473ffffffffffffffffffffffffffffffffffffffff1681565b600260009054906101000a900473ffffffffffffffffffffffffffffffffffffffff1681565b60008183611e139190612973565b905092915050565b600080611eac6064611e9e611e65600a600088815260200190815260200160002060040154600a600089815260200190815260200160002060050154611efe90919063ffffffff16565b611e90600954600a60008a815260200190815260200160002060030154611f1490919063ffffffff16565b611f1490919063ffffffff16565b611f2a90919063ffffffff16565b9050611ec56301e1338082611f2a90919063ffffffff16565b600a600085815260200190815260200160002060070181905550600a600084815260200190815260200160002060070154915050919050565b60008183611f0c9190612cea565b905092915050565b60008183611f229190612d1e565b905092915050565b60008183611f389190612da7565b905092915050565b828054611f4c906123d2565b90600052602060002090601f016020900481019282611f6e5760008555611fb5565b82601f10611f8757805160ff1916838001178555611fb5565b82800160010185558215611fb5579182015b82811115611fb4578251825591602001919060010190611f99565b5b509050611fc29190611fc6565b5090565b5b80821115611fdf576000816000905550600101611fc7565b5090565b6000604051905090565b600080fd5b600080fd5b6000819050919050565b61200a81611ff7565b811461201557600080fd5b50565b60008135905061202781612001565b92915050565b60006020828403121561204357612042611fed565b5b600061205184828501612018565b91505092915050565b600073ffffffffffffffffffffffffffffffffffffffff82169050919050565b60006120858261205a565b9050919050565b6120958161207a565b81146120a057600080fd5b50565b6000813590506120b28161208c565b92915050565b600080604083850312156120cf576120ce611fed565b5b60006120dd85828601612018565b92505060206120ee858286016120a3565b9150509250929050565b61210181611ff7565b82525050565b600060208201905061211c60008301846120f8565b92915050565b6000806040838503121561213957612138611fed565b5b6000612147858286016120a3565b925050602061215885828601612018565b9150509250929050565b60008115159050919050565b61217781612162565b82525050565b600060608201905061219260008301866120f8565b61219f60208301856120f8565b6121ac604083018461216e565b949350505050565b6121bd8161207a565b82525050565b600081519050919050565b600082825260208201905092915050565b60005b838110156121fd5780820151818401526020810190506121e2565b8381111561220c576000848401525b50505050565b6000601f19601f8301169050919050565b600061222e826121c3565b61223881856121ce565b93506122488185602086016121df565b61225181612212565b840191505092915050565b600061016082019050612272600083018e6121b4565b61227f602083018d6121b4565b8181036040830152612291818c612223565b90506122a0606083018b6120f8565b6122ad608083018a6120f8565b6122ba60a08301896120f8565b6122c760c08301886120f8565b6122d460e08301876120f8565b6122e261010083018661216e565b6122f061012083018561216e565b6122fe61014083018461216e565b9c9b505050505050505050505050565b6000819050919050565b600061233361232e6123298461205a565b61230e565b61205a565b9050919050565b600061234582612318565b9050919050565b60006123578261233a565b9050919050565b6123678161234c565b82525050565b6000602082019050612382600083018461235e565b92915050565b600060208201905061239d60008301846121b4565b92915050565b7f4e487b7100000000000000000000000000000000000000000000000000000000600052602260045260246000fd5b600060028204905060018216806123ea57607f821691505b602082108114156123fe576123fd6123a3565b5b50919050565b7f596f75722066756e64732077697468647261776e20616c726561647900000000600082015250565b600061243a601c836121ce565b915061244582612404565b602082019050919050565b600060208201905081810360008301526124698161242d565b9050919050565b7f436c61696d656420796f7572204e465420616c72656164790000000000000000600082015250565b60006124a66018836121ce565b91506124b182612470565b602082019050919050565b600060208201905081810360008301526124d581612499565b9050919050565b7f546f6b656e7320617265206f6e6c7920617661696c61626c652061667465722060008201527f636f72726563742074696d6520706572696f642068617320656c617073656400602082015250565b6000612538603f836121ce565b9150612543826124dc565b604082019050919050565b600060208201905081810360008301526125678161252b565b9050919050565b60008151905061257d81612001565b92915050565b60006020828403121561259957612598611fed565b5b60006125a78482850161256e565b91505092915050565b7f596f75206d757374207374616b65206174206c656173742031303020746f6b6560008201527f6e73000000000000000000000000000000000000000000000000000000000000602082015250565b600061260c6022836121ce565b9150612617826125b0565b604082019050919050565b6000602082019050818103600083015261263b816125ff565b9050919050565b7f596f7520617265206e6f742061626c6520746f207374616b6573206d6f72652060008201527f7468616e2031303030303020746f6b656e730000000000000000000000000000602082015250565b600061269e6032836121ce565b91506126a982612642565b604082019050919050565b600060208201905081810360008301526126cd81612691565b9050919050565b7f4e6f7420656e6f7567682042616c616e63650000000000000000000000000000600082015250565b600061270a6012836121ce565b9150612715826126d4565b602082019050919050565b60006020820190508181036000830152612739816126fd565b9050919050565b600060408201905061275560008301856121b4565b61276260208301846121b4565b9392505050565b7f4e6f742073756666696369656e7420616c6c6f77616e63650000000000000000600082015250565b600061279f6018836121ce565b91506127aa82612769565b602082019050919050565b600060208201905081810360008301526127ce81612792565b9050919050565b600080fd5b600080fd5b7f4e487b7100000000000000000000000000000000000000000000000000000000600052604160045260246000fd5b61281782612212565b810181811067ffffffffffffffff82111715612836576128356127df565b5b80604052505050565b6000612849611fe3565b9050612855828261280e565b919050565b600067ffffffffffffffff821115612875576128746127df565b5b61287e82612212565b9050602081019050919050565b600061289e6128998461285a565b61283f565b9050828152602081018484840111156128ba576128b96127da565b5b6128c58482856121df565b509392505050565b600082601f8301126128e2576128e16127d5565b5b81516128f284826020860161288b565b91505092915050565b60006020828403121561291157612910611fed565b5b600082015167ffffffffffffffff81111561292f5761292e611ff2565b5b61293b848285016128cd565b91505092915050565b7f4e487b7100000000000000000000000000000000000000000000000000000000600052601160045260246000fd5b600061297e82611ff7565b915061298983611ff7565b9250827fffffffffffffffffffffffffffffffffffffffffffffffffffffffffffffffff038211156129be576129bd612944565b5b828201905092915050565b60006060820190506129de60008301866121b4565b6129eb60208301856121b4565b6129f860408301846120f8565b949350505050565b612a0981612162565b8114612a1457600080fd5b50565b600081519050612a2681612a00565b92915050565b600060208284031215612a4257612a41611fed565b5b6000612a5084828501612a17565b91505092915050565b7f4d6573736167652073656e646572206d7573742062652074686520636f6e747260008201527f6163742773206f776e65722e0000000000000000000000000000000000000000602082015250565b6000612ab5602c836121ce565b9150612ac082612a59565b604082019050919050565b60006020820190508181036000830152612ae481612aa8565b9050919050565b7f76616c7565206d7573742067726561746572207468616e203000000000000000600082015250565b6000612b216019836121ce565b9150612b2c82612aeb565b602082019050919050565b60006020820190508181036000830152612b5081612b14565b9050919050565b7f63616c6c6572206d7573742062652061207374616b65686f6c64657200000000600082015250565b6000612b8d601c836121ce565b9150612b9882612b57565b602082019050919050565b60006020820190508181036000830152612bbc81612b80565b9050919050565b7f546865207374616b65206861732077697468647277616e20616c726561647900600082015250565b6000612bf9601f836121ce565b9150612c0482612bc3565b602082019050919050565b60006020820190508181036000830152612c2881612bec565b9050919050565b7f746f6b656e7320617661696c61626c652061667465722074686520706572696f60008201527f6400000000000000000000000000000000000000000000000000000000000000602082015250565b6000612c8b6021836121ce565b9150612c9682612c2f565b604082019050919050565b60006020820190508181036000830152612cba81612c7e565b9050919050565b6000604082019050612cd660008301856121b4565b612ce360208301846120f8565b9392505050565b6000612cf582611ff7565b9150612d0083611ff7565b925082821015612d1357612d12612944565b5b828203905092915050565b6000612d2982611ff7565b9150612d3483611ff7565b9250817fffffffffffffffffffffffffffffffffffffffffffffffffffffffffffffffff0483118215151615612d6d57612d6c612944565b5b828202905092915050565b7f4e487b7100000000000000000000000000000000000000000000000000000000600052601260045260246000fd5b6000612db282611ff7565b9150612dbd83611ff7565b925082612dcd57612dcc612d78565b5b82820490509291505056fea2646970667358221220b2d0e0ca4dd425a10428f966dbe5ad1dbcc2bc6327bc456a09abaa5f3e2552fd64736f6c634300080b0033",
  "immutableReferences": {},
  "source": "// SPDX-License-Identifier: MIT\npragma solidity ^0.8.2;\n\nimport \"@openzeppelin/contracts/utils/math/SafeMath.sol\";\nimport \"./CustomIERC721.sol\";\nimport \"./CustomIERC20.sol\";\n\nstruct Stake {\n    address stakeholder;\n    address contractAddress;\n    string tokenName;\n    uint256 amount;\n    uint256 stakedAt;\n    uint256 unStakedAt;\n    uint256 claimedAt;\n    uint256 rewardAmount;\n    bool isUnstaked;\n    bool isRewardClaimed;\n    bool isStaked;\n}\n\nstruct NftReward {\n    uint256 tokenId;\n    uint256 NFTclaimedAt;\n    bool isNFTClaimed;\n}\n\ncontract Defi {\n    using SafeMath for uint256;\n\n    CustomIERC20 public rewardToken;\n    address private _GateAddress;\n\n    address public admin;\n    uint256 internal unstakePeriod;\n    uint256 internal minimumStakes;\n    uint256 internal maximumStakes;\n    uint256 public totalStakes;\n    uint256 public lockTime;\n    uint256 public rewardInterval;\n    uint256 public rewardRate;\n\n    mapping(uint256 => Stake) public stakes;\n    mapping(uint256 => NftReward) public nftRewards;\n    mapping(address => uint256[]) public userStakelist;\n\n    modifier onlyAdmin() {\n        require(\n            msg.sender == admin,\n            \"Message sender must be the contract's owner.\"\n        );\n        _;\n    }\n\n    constructor(address _NFTAddress, address _rewardToken) {\n        admin = msg.sender;\n        rewardToken = CustomIERC20(_rewardToken);\n        _GateAddress = _NFTAddress;\n    }\n\n    function setMinimumStakevalue(uint256 _value) public onlyAdmin {\n        require(_value > 0, \"value must greater than 0\");\n        minimumStakes = _value;\n    }\n\n    function setMaximumStakevalue(uint256 _value) public onlyAdmin {\n        require(_value > 0, \"value must greater than 0\");\n        maximumStakes = _value;\n    }\n\n    function setLocktime(uint256 _locktime) public onlyAdmin {\n        require(_locktime > 0, \"value must greater than 0\");\n        lockTime = _locktime;\n    }\n\n    function setRewardInterval(uint256 _rewardInterval) public onlyAdmin {\n        require(_rewardInterval > 0, \"value must greater than 0\");\n        rewardInterval = _rewardInterval;\n    }\n\n    function setRewardRate(uint256 _value) public onlyAdmin {\n        require(_value > 0, \"value must greater than 0\");\n        rewardRate = _value;\n    }\n\n   modifier mandatory {\n       require(minimumStakes > 1);\n       require(lockTime > 1); \n       require(rewardInterval > 1);\n       require(rewardRate > 1);\n       _;\n   }\n   \n    function stakeTokens(uint256 _amount, address _tokenAddress) public mandatory {\n        \n        require(_amount >= minimumStakes, \"You must stake at least 100 tokens\");\n        require(\n            _amount <= maximumStakes,\n            \"You are not able to stakes more than 100000 tokens\"\n        );\n        require(\n            CustomIERC20(_tokenAddress).balanceOf(msg.sender) >= _amount,\n            \"Not enough Balance\"\n        );\n        require(\n            CustomIERC20(_tokenAddress).allowance(msg.sender, address(this)) >=\n                _amount,\n            \"Not sufficient allowance\"\n        );\n\n\n        Stake memory stake = Stake(\n            msg.sender,\n            _tokenAddress, \n            CustomIERC20(_tokenAddress).name(), \n            _amount, \n            block.timestamp, \n            0, \n            0, \n            0, \n            false, \n            false,\n            true\n        );\n       \n        totalStakes = totalStakes + 1;\n        stakes[totalStakes] = stake;\n        userStakelist[msg.sender].push(totalStakes);\n\n        CustomIERC20(_tokenAddress).transferFrom(msg.sender, address(this), _amount);\n    }\n\n    function _calculateReward(uint256 _stakeID) internal returns (uint256) {\n        uint256 value = stakes[_stakeID]\n            .amount\n            .mul(rewardRate)\n            .mul(stakes[_stakeID].unStakedAt.sub(stakes[_stakeID].stakedAt))\n            .div(100);\n        stakes[_stakeID].rewardAmount = value.div(31536000);\n        return stakes[_stakeID].rewardAmount;\n    }\n\n    function unstakeTokens(uint256 _stakeID) public {\n        Stake memory stake = stakes[_stakeID];\n        require(!(stake.isStaked), \"Your funds withdrawn already\");\n        require(\n            stake.stakeholder == msg.sender,\n            \"caller must be a stakeholder\"\n        );\n        require(stake.isUnstaked == false, \"The stake has withdrwan already\");\n        unstakePeriod = stake.stakedAt.add(lockTime);\n        require(\n            block.timestamp >= unstakePeriod,\n            \"tokens available after the period\"\n        );\n        stake.unStakedAt = block.timestamp;\n        stake.isUnstaked = true;\n        stakes[_stakeID] = stake;\n        _calculateReward(_stakeID);\n        CustomIERC20(stake.contractAddress).transfer(msg.sender, stake.amount);\n    }\n\n     function claimRewardTokens(uint256 _stakeID) public onlyAdmin {\n        Stake memory stake = stakes[_stakeID];\n        if (stake.rewardAmount > 0) {\n            stake.isRewardClaimed = true;\n            stake.claimedAt = block.timestamp;\n            rewardToken.mint(stake.stakeholder, stake.rewardAmount);\n        }\n        stakes[_stakeID] = stake;\n    }\n\n    function claimNFTReward(\n        uint256 _stakeID\n    ) public {\n        Stake memory stake = stakes[_stakeID];\n        NftReward memory nftReward = nftRewards[_stakeID];\n        uint256 nftIssuance = stake.stakedAt.add(rewardInterval);\n        CustomIERC721 ierc721 = CustomIERC721(_GateAddress);\n        require(stake.isUnstaked == false,\"Your funds withdrawn already\");\n        require(nftRewards[_stakeID].isNFTClaimed == false,\"Claimed your NFT already\");\n        require(\n            block.timestamp >= nftIssuance,\n            \"Tokens are only available after correct time period has elapsed\"\n        );\n       // take the current tokenID from the NFT contract\n               ierc721.safeMint(msg.sender);\n        nftReward.tokenId = ierc721.currentTokenId();\n        nftReward.isNFTClaimed = true;\n        nftReward.NFTclaimedAt = block.timestamp;\n        nftRewards[_stakeID] = nftReward;\n    }  \n}\n",
  "sourcePath": "/home/bear/Desktop/staking-truffle/contracts/Defi.sol",
  "compiler": {
    "name": "solc",
    "version": "0.8.11+commit.d7f03943.Emscripten.clang"
  },
  "schemaVersion": "3.4.4",
  "updatedAt": "2022-08-01T06:31:22.946Z",
  "devdoc": {
    "kind": "dev",
    "methods": {},
    "version": 1
  },
  "userdoc": {
    "kind": "user",
    "methods": {},
    "version": 1
  }
}